{
  "_format": "hh-sol-artifact-1",
  "contractName": "SiteRegistry",
  "sourceName": "contracts/SiteRegistry.sol",
  "abi": [
    {
      "anonymous": false,
      "inputs": [
        {
          "indexed": true,
          "internalType": "bytes32",
          "name": "siteId",
          "type": "bytes32"
        },
        {
          "indexed": true,
          "internalType": "address",
          "name": "gateway",
          "type": "address"
        },
        {
          "indexed": false,
          "internalType": "uint256",
          "name": "timestamp",
          "type": "uint256"
        }
      ],
      "name": "GatewayAuthorized",
      "type": "event"
    },
    {
      "anonymous": false,
      "inputs": [
        {
          "indexed": true,
          "internalType": "bytes32",
          "name": "siteId",
          "type": "bytes32"
        },
        {
          "indexed": true,
          "internalType": "address",
          "name": "gateway",
          "type": "address"
        },
        {
          "indexed": false,
          "internalType": "uint256",
          "name": "timestamp",
          "type": "uint256"
        }
      ],
      "name": "GatewayRevoked",
      "type": "event"
    },
    {
      "anonymous": false,
      "inputs": [
        {
          "indexed": true,
          "internalType": "bytes32",
          "name": "siteId",
          "type": "bytes32"
        },
        {
          "indexed": true,
          "internalType": "address",
          "name": "signer",
          "type": "address"
        },
        {
          "indexed": false,
          "internalType": "uint256",
          "name": "timestamp",
          "type": "uint256"
        }
      ],
      "name": "SignerAuthorized",
      "type": "event"
    },
    {
      "anonymous": false,
      "inputs": [
        {
          "indexed": true,
          "internalType": "bytes32",
          "name": "siteId",
          "type": "bytes32"
        },
        {
          "indexed": true,
          "internalType": "address",
          "name": "signer",
          "type": "address"
        },
        {
          "indexed": false,
          "internalType": "uint256",
          "name": "timestamp",
          "type": "uint256"
        }
      ],
      "name": "SignerRevoked",
      "type": "event"
    },
    {
      "anonymous": false,
      "inputs": [
        {
          "indexed": true,
          "internalType": "bytes32",
          "name": "siteId",
          "type": "bytes32"
        },
        {
          "indexed": false,
          "internalType": "uint256",
          "name": "timestamp",
          "type": "uint256"
        }
      ],
      "name": "SiteDeactivated",
      "type": "event"
    },
    {
      "anonymous": false,
      "inputs": [
        {
          "indexed": true,
          "internalType": "bytes32",
          "name": "siteId",
          "type": "bytes32"
        },
        {
          "indexed": true,
          "internalType": "address",
          "name": "previousOwner",
          "type": "address"
        },
        {
          "indexed": true,
          "internalType": "address",
          "name": "newOwner",
          "type": "address"
        }
      ],
      "name": "SiteOwnershipTransferred",
      "type": "event"
    },
    {
      "anonymous": false,
      "inputs": [
        {
          "indexed": true,
          "internalType": "bytes32",
          "name": "siteId",
          "type": "bytes32"
        },
        {
          "indexed": true,
          "internalType": "address",
          "name": "owner",
          "type": "address"
        },
        {
          "indexed": false,
          "internalType": "uint256",
          "name": "timestamp",
          "type": "uint256"
        }
      ],
      "name": "SiteRegistered",
      "type": "event"
    },
    {
      "inputs": [
        {
          "internalType": "bytes32",
          "name": "siteId",
          "type": "bytes32"
        },
        {
          "internalType": "address",
          "name": "gateway",
          "type": "address"
        }
      ],
      "name": "authorizeGateway",
      "outputs": [],
      "stateMutability": "nonpayable",
      "type": "function"
    },
    {
      "inputs": [
        {
          "internalType": "bytes32",
          "name": "siteId",
          "type": "bytes32"
        },
        {
          "internalType": "address",
          "name": "signer",
          "type": "address"
        }
      ],
      "name": "authorizeSigner",
      "outputs": [],
      "stateMutability": "nonpayable",
      "type": "function"
    },
    {
      "inputs": [
        {
          "internalType": "bytes32",
          "name": "",
          "type": "bytes32"
        },
        {
          "internalType": "address",
          "name": "",
          "type": "address"
        }
      ],
      "name": "authorizedGateways",
      "outputs": [
        {
          "internalType": "bool",
          "name": "",
          "type": "bool"
        }
      ],
      "stateMutability": "view",
      "type": "function"
    },
    {
      "inputs": [
        {
          "internalType": "bytes32",
          "name": "",
          "type": "bytes32"
        },
        {
          "internalType": "address",
          "name": "",
          "type": "address"
        }
      ],
      "name": "authorizedSigners",
      "outputs": [
        {
          "internalType": "bool",
          "name": "",
          "type": "bool"
        }
      ],
      "stateMutability": "view",
      "type": "function"
    },
    {
      "inputs": [
        {
          "internalType": "bytes32",
          "name": "siteId",
          "type": "bytes32"
        }
      ],
      "name": "deactivateSite",
      "outputs": [],
      "stateMutability": "nonpayable",
      "type": "function"
    },
    {
      "inputs": [
        {
          "internalType": "bytes32",
          "name": "siteId",
          "type": "bytes32"
        }
      ],
      "name": "getSite",
      "outputs": [
        {
          "internalType": "address",
          "name": "owner",
          "type": "address"
        },
        {
          "internalType": "bool",
          "name": "active",
          "type": "bool"
        },
        {
          "internalType": "uint256",
          "name": "registeredAt",
          "type": "uint256"
        }
      ],
      "stateMutability": "view",
      "type": "function"
    },
    {
      "inputs": [],
      "name": "getSiteCount",
      "outputs": [
        {
          "internalType": "uint256",
          "name": "",
          "type": "uint256"
        }
      ],
      "stateMutability": "view",
      "type": "function"
    },
    {
      "inputs": [
        {
          "internalType": "bytes32",
          "name": "siteId",
          "type": "bytes32"
        },
        {
          "internalType": "address",
          "name": "gateway",
          "type": "address"
        }
      ],
      "name": "isGatewayAuthorized",
      "outputs": [
        {
          "internalType": "bool",
          "name": "",
          "type": "bool"
        }
      ],
      "stateMutability": "view",
      "type": "function"
    },
    {
      "inputs": [
        {
          "internalType": "bytes32",
          "name": "siteId",
          "type": "bytes32"
        },
        {
          "internalType": "address",
          "name": "signer",
          "type": "address"
        }
      ],
      "name": "isSignerAuthorized",
      "outputs": [
        {
          "internalType": "bool",
          "name": "",
          "type": "bool"
        }
      ],
      "stateMutability": "view",
      "type": "function"
    },
    {
      "inputs": [
        {
          "internalType": "bytes32",
          "name": "siteId",
          "type": "bytes32"
        }
      ],
      "name": "registerSite",
      "outputs": [],
      "stateMutability": "nonpayable",
      "type": "function"
    },
    {
      "inputs": [
        {
          "internalType": "bytes32",
          "name": "siteId",
          "type": "bytes32"
        },
        {
          "internalType": "address",
          "name": "gateway",
          "type": "address"
        }
      ],
      "name": "revokeGateway",
      "outputs": [],
      "stateMutability": "nonpayable",
      "type": "function"
    },
    {
      "inputs": [
        {
          "internalType": "bytes32",
          "name": "siteId",
          "type": "bytes32"
        },
        {
          "internalType": "address",
          "name": "signer",
          "type": "address"
        }
      ],
      "name": "revokeSigner",
      "outputs": [],
      "stateMutability": "nonpayable",
      "type": "function"
    },
    {
      "inputs": [
        {
          "internalType": "uint256",
          "name": "",
          "type": "uint256"
        }
      ],
      "name": "siteIds",
      "outputs": [
        {
          "internalType": "bytes32",
          "name": "",
          "type": "bytes32"
        }
      ],
      "stateMutability": "view",
      "type": "function"
    },
    {
      "inputs": [
        {
          "internalType": "bytes32",
          "name": "",
          "type": "bytes32"
        }
      ],
      "name": "sites",
      "outputs": [
        {
          "internalType": "address",
          "name": "owner",
          "type": "address"
        },
        {
          "internalType": "bool",
          "name": "active",
          "type": "bool"
        },
        {
          "internalType": "uint256",
          "name": "registeredAt",
          "type": "uint256"
        }
      ],
      "stateMutability": "view",
      "type": "function"
    },
    {
      "inputs": [
        {
          "internalType": "bytes32",
          "name": "siteId",
          "type": "bytes32"
        },
        {
          "internalType": "address",
          "name": "newOwner",
          "type": "address"
        }
      ],
      "name": "transferOwnership",
      "outputs": [],
      "stateMutability": "nonpayable",
      "type": "function"
    }
  ],
  "bytecode": "0x608060405234801561001057600080fd5b50610e50806100206000396000f3fe608060405234801561001057600080fd5b50600436106100f55760003560e01c80638391f6e811610097578063ee94840611610066578063ee948406146102dd578063eebddb7b1461030b578063ef5d6bbb1461031e578063f3251d811461033157600080fd5b80638391f6e814610246578063912950a014610258578063a31aab131461026b578063a399a6c5146102a457600080fd5b80635c4623dc116100d35780635c4623dc146101895780636957282a1461019c5780636e1c66d7146101f55780637f3f5d371461020857600080fd5b80630ce19379146100fa57806336c9cd161461010f5780633840563514610176575b600080fd5b61010d610108366004610d66565b610344565b005b61014c61011d366004610d66565b600060208190529081526040902080546001909101546001600160a01b03821691600160a01b900460ff169083565b604080516001600160a01b0390941684529115156020840152908201526060015b60405180910390f35b61010d610184366004610d7f565b61040e565b61010d610197366004610d66565b6105a7565b61014c6101aa366004610d66565b60009081526020818152604091829020825160608101845281546001600160a01b038116808352600160a01b90910460ff161515938201849052600190920154930183905292909190565b61010d610203366004610d7f565b61076c565b610236610216366004610d7f565b600160209081526000928352604080842090915290825290205460ff1681565b604051901515815260200161016d565b6003545b60405190815260200161016d565b61024a610266366004610d66565b6108a1565b610236610279366004610d7f565b60009182526001602090815260408084206001600160a01b0393909316845291905290205460ff1690565b6102366102b2366004610d7f565b60009182526002602090815260408084206001600160a01b0393909316845291905290205460ff1690565b6102366102eb366004610d7f565b600260209081526000928352604080842090915290825290205460ff1681565b61010d610319366004610d7f565b6108c2565b61010d61032c366004610d7f565b610a56565b61010d61033f366004610d7f565b610bce565b60008181526020819052604090205481906001600160a01b031633146103855760405162461bcd60e51b815260040161037c90610dbb565b60405180910390fd5b6000828152602081905260409020548290600160a01b900460ff166103bc5760405162461bcd60e51b815260040161037c90610de3565b60008381526020818152604091829020805460ff60a01b19169055905142815284917f07ceb9c38c3902e2bbd63c5858c33d025eea55fef4ddf77313600eb073c69191910160405180910390a2505050565b60008281526020819052604090205482906001600160a01b031633146104465760405162461bcd60e51b815260040161037c90610dbb565b6000838152602081905260409020548390600160a01b900460ff1661047d5760405162461bcd60e51b815260040161037c90610de3565b6001600160a01b0383166104cc5760405162461bcd60e51b8152602060048201526016602482015275496e76616c6964207369676e6572206164647265737360501b604482015260640161037c565b60008481526002602090815260408083206001600160a01b038716845290915290205460ff161561053f5760405162461bcd60e51b815260206004820152601960248201527f5369676e657220616c726561647920617574686f72697a656400000000000000604482015260640161037c565b60008481526002602090815260408083206001600160a01b03871680855290835292819020805460ff191660011790555142815286917f1391931bda44c6ad1583a44eed20003458a0b57f00231bb6a8b8164797c9313491015b60405180910390a350505050565b600081815260208190526040902054600160a01b900460ff161561060d5760405162461bcd60e51b815260206004820152601760248201527f5369746520616c72656164792072656769737465726564000000000000000000604482015260640161037c565b8061064c5760405162461bcd60e51b815260206004820152600f60248201526e125b9d985b1a59081cda5d19481251608a1b604482015260640161037c565b6040805160608101825233808252600160208084018281524285870181815260008981528085528881209751885494511515600160a01b026001600160a81b03199095166001600160a01b0391909116179390931787555195840195909555600380548085019091557fc2575a0e9e593c00f959f8c92f12db2869c3395a3b0502d05e2516446f71f85b0187905586815260028252858120848252909152849020805460ff19169091179055915183917f61d645f6004de33d40bf62236aeede66963239ef5b9e6e08acc904917fcc0a5f9161072a91815260200190565b60405180910390a3604051428152339082907f1391931bda44c6ad1583a44eed20003458a0b57f00231bb6a8b8164797c931349060200160405180910390a350565b60008281526020819052604090205482906001600160a01b031633146107a45760405162461bcd60e51b815260040161037c90610dbb565b6000838152602081905260409020548390600160a01b900460ff166107db5760405162461bcd60e51b815260040161037c90610de3565b60008481526001602090815260408083206001600160a01b038716845290915290205460ff166108465760405162461bcd60e51b815260206004820152601660248201527511d85d195dd85e481b9bdd08185d5d1a1bdc9a5e995960521b604482015260640161037c565b60008481526001602090815260408083206001600160a01b03871680855290835292819020805460ff191690555142815286917fea95aa6879200ab34e700eb7421eda5ad98f76c1d82865186e036fb6c64575979101610599565b600381815481106108b157600080fd5b600091825260209091200154905081565b60008281526020819052604090205482906001600160a01b031633146108fa5760405162461bcd60e51b815260040161037c90610dbb565b6000838152602081905260409020548390600160a01b900460ff166109315760405162461bcd60e51b815260040161037c90610de3565b6000848152602081905260409020546001600160a01b03908116908416036109915760405162461bcd60e51b815260206004820152601360248201527221b0b73737ba103932bb37b5b29037bbb732b960691b604482015260640161037c565b60008481526002602090815260408083206001600160a01b038716845290915290205460ff166109fb5760405162461bcd60e51b815260206004820152601560248201527414da59db995c881b9bdd08185d5d1a1bdc9a5e9959605a1b604482015260640161037c565b60008481526002602090815260408083206001600160a01b03871680855290835292819020805460ff191690555142815286917f2e1e03e21355bf22cf2c7eb3e922a18e52c3a79b2f539e44c31bf47358654a4b9101610599565b60008281526020819052604090205482906001600160a01b03163314610a8e5760405162461bcd60e51b815260040161037c90610dbb565b6000838152602081905260409020548390600160a01b900460ff16610ac55760405162461bcd60e51b815260040161037c90610de3565b6001600160a01b038316610b0f5760405162461bcd60e51b815260206004820152601160248201527024b73b30b634b2103732bb9037bbb732b960791b604482015260640161037c565b60008481526020818152604080832080546001600160a01b031981166001600160a01b0389811691821790935560028552838620818752909452828520805460ff191660011790559151911692839188917f98e62ee03aa20e9e585f95884c3777994ffed0be8e0051ec4a9efc66187e259d91a4836001600160a01b0316857f1391931bda44c6ad1583a44eed20003458a0b57f00231bb6a8b8164797c9313442604051610bbf91815260200190565b60405180910390a35050505050565b60008281526020819052604090205482906001600160a01b03163314610c065760405162461bcd60e51b815260040161037c90610dbb565b6000838152602081905260409020548390600160a01b900460ff16610c3d5760405162461bcd60e51b815260040161037c90610de3565b6001600160a01b038316610c935760405162461bcd60e51b815260206004820152601760248201527f496e76616c696420676174657761792061646472657373000000000000000000604482015260640161037c565b60008481526001602090815260408083206001600160a01b038716845290915290205460ff1615610d065760405162461bcd60e51b815260206004820152601a60248201527f4761746577617920616c726561647920617574686f72697a6564000000000000604482015260640161037c565b60008481526001602081815260408084206001600160a01b03881680865290835293819020805460ff1916909317909255905142815286917fb8bb658a9c355be81b5aaf6e14584625537aee676af2b758f546bf14d7f7b7de9101610599565b600060208284031215610d7857600080fd5b5035919050565b60008060408385031215610d9257600080fd5b8235915060208301356001600160a01b0381168114610db057600080fd5b809150509250929050565b6020808252600e908201526d2737ba1039b4ba329037bbb732b960911b604082015260600190565b6020808252601f908201527f5369746520646f6573206e6f74206578697374206f7220696e6163746976650060408201526060019056fea2646970667358221220da266052fc552faa42bf65034a541b3ae46e92b1ca5ea4840d976045fdfe8ff564736f6c63430008140033",
  "linkReferences": {},
  "deployedLinkReferences": {}
}